:100000001AC500000C94642A0C94392A0C940E2A08
:100010000C94E3290C94B8290C948D290C94622932
:100020000C94372939C5000037C5000035C50000DC
:100030000C94B32B31C500002FC500002DC5000066
:100040002BC5000029C5000027C5000025C50000FC
:1000500023C5000021C500001FC500000C94ED2839
:100060001BC500000C94B7280C948D2815C5000002
:1000700013C5000011C500000FC500000DC500002C
:100080000BC5000009C5000007C5000005C500003C
:100090000C9457280C942D28FFC400000C948F2A30
:1000A000FBC40000F9C40000F7C40000F5C4000060
:1000B000F3C40000F1C40000EFC40000EDC4000070
:1000C000EBC40000E9C40000E7C40000E5C4000080
:1000D000E3C40000E1C40000DFC40000DDC4000090
:1000E000DBC4000000407A10F35A00A0724E1809D9
:1000F0000010A5D4E80000E87648170000E40B548F
:10010000020000CA9A3B000000E1F505000080965D
:100110009800000040420F000000A086010000008F
:10012000102700000000E803000000006400000049
:1001300000000A00000000000100000000002C7612
:10014000D888DC674F0823DFC1DFAE59E1B1B7962D
:10015000E5E3E453C63AE651997696E8E6C284268A
:10016000EB898C9B62ED407C6FFCEFBC9C9F40F266
:10017000BAA56FA5F490055A2AF75C936B6CF967E2
:100180006DC11BFCE0E40D47FEF520E6B500D0EDA7
:10019000902E0300943577050080841E080000200F
:1001A0004E0A000000C80C333333330F986E1283AD
:1001B0001141EF8D2114893BE65516CFFEE6DB1881
:1001C000D1844B381BF77C1D901DA4BBE424203246
:1001D00084725E228100C9F124ECA1E53D2772659D
:1001E000636569766528292063616C6C65642066A7
:1001F0006F722073656E736F723A200043616C6C8E
:10020000696E672072656365697665282920666F67
:10021000722073656E736F723A200022544350004F
:10022000414C524541445920434F4E4E45435400A2
:100230002C00222C00222C22002B434950535441E5
:1002400052543D002B434950434C4F53453D000D04
:100250000A53454E44204F4B0D0A003E002B4349A4
:100260005053454E443D0025732F25752F25752F7E
:1002700025752F25752F2575004757543A5450532F
:100280003A544F5049433D25732C4D534720534515
:100290004E540A004757543A494D513A544F504929
:1002A000433D25732C204D53472052454345495625
:1002B00045440A002B43574A41505F4355523A0088
:1002C0004552524F52002B4349505354415F4355BE
:1002D000523F3F004757543A5450433A49503D2506
:1002E000730A0077616974696E672E2E2E0052655D
:1002F000666163746F7220636F646520616E642051
:100300006C6F616420616761696E2E2E2E00204F34
:100310006E6C79206E6F6E2D6C61746368696E67A8
:100320002072656C617920616C6C6F7765642077F1
:1003300068656E2073656E736F722070696E2073CE
:10034000657420746F3A205349474E414C00457202
:10035000726F723A2057726F6E672072656C6179A6
:10036000207479706520666F722052656C617953D4
:10037000656E736F723A20005369676E616C20621C
:100380007574746F6E2073657420666F7220736568
:100390006E736F723A20005265666163746F7220EB
:1003A000636F646520616E64206C6F6164206167B7
:1003B00061696E2E2E2E00204F6E6C79206C617458
:1003C0006368696E672072656C617920616C6C6F1F
:1003D000776564207768656E2073656E736F722031
:1003E00070696E2073657420746F3A2054524947C7
:1003F000474552004572726F723A2057726F6E67AE
:100400002072656C6179207479706520666F722046
:1004100052656C617953656E736F723A2000547245
:10042000696767657220627574746F6E2073657496
:1004300020666F722073656E736F723A2000000041
:100440002100240027002A002D0030003300010184
:100450000000040107010A0152656C61797320698B
:100460006E697469616C697A656420616E64207379
:100470006574207570210043757272656E7420700A
:10048000696E20737461746520696E20696E697489
:1004900069616C697A6174696F6E3A2000437572A4
:1004A00072656E742072656C617920737461746515
:1004B00020696E20696E697469616C697A6174691A
:1004C0006F6E3A200043757272656E742073656EAC
:1004D000736F7220737461746520696E20696E6930
:1004E0007469616C697A6174696F6E3A2000437552
:1004F0007272656E742073656E736F723A20004578
:100500006E7669726F6E6D656E742073656E736F53
:10051000727320696E697469616C697A656421001F
:10052000466F756E6420554E4B4E4F574E20736587
:100530006E736F7221204572726F722100466F7563
:100540006E6420424D503238302073656E736F7286
:1005500021204E6F2048756D696469747920617639
:1005600061696C61626C652E00466F756E64204235
:100570004D453238302073656E736F72212053758C
:1005800063636573732E00436F756C64206E6F74C4
:100590002066696E6420424D453238302073656EA6
:1005A000736F7221006265666F726528292063612E
:1005B0006C6C65642E2E2E210043757272656E740C
:1005C0002070696E20737461746520696E20736594
:1005D0007475703A200043757272656E742073658D
:1005E0006E736F7220737461746520696E20736519
:1005F0007475703A200043757272656E742073656D
:100600006E736F723A2000736574757028292063C9
:10061000616C6C65642E2E2E210073656E645072C1
:100620006573656E746174696F6E28292063616CEF
:100630006C65642E2E2E210043686F6F73652070E9
:10064000726573656E746174696F6E20747970651C
:10065000212121004530000D0A72656164790D0A7F
:10066000002B525354000D0A4641494C0D0A0022FA
:1006700000222C22002B43574A41505F4355523DE4
:1006800022002B43574D4F44455F4355523D3100A7
:100690002B4349504D55583D31004757543A544922
:1006A0004E3A455448204F4B0A00214757543A547C
:1006B000494E3A455448204641494C0A004D434F63
:1006C0003A5245473A4E4F54204E45454445440A18
:1006D000004D434F3A42474E3A494E4954204F4B02
:1006E0002C5453503D4E410A004D434F3A42474E21
:1006F0003A5354500A004D434F3A42474E3A42460D
:10070000520A004D434F3A42474E3A494E4954200F
:1007100047572C43503D522D4E47412D2D2D2C46F1
:10072000513D25752C52454C3D25752C5645523D65
:10073000322E332E320A004757543A524D513A4F17
:100740004B0A00214757543A524D513A4641494CC1
:100750000A004757543A524D513A434F4E4E454383
:1007600054494E472E2E2E0A00214D434F3A5052E7
:100770004F3A52433D25750A002C20537769746324
:100780006820756E7375636365737366756C21217C
:1007900021002C206E65772073656E736F72207355
:1007A000746174653A200073776974636852656C8C
:1007B000617928292063616C6C656420666F722002
:1007C00073656E736F723A20002C205377697463DF
:1007D00068207375636365737366756C2E002C20D7
:1007E0006E65772073656E736F72207374617465C4
:1007F0003A200073776974636852656C61792829BF
:100800002063616C6C656420666F722073656E7323
:100810006F723A200043616C6C696E672073776970
:1008200074636852656C6179282920666F72207341
:10083000656E736F723A20000000220025002800C8
:100840002B002E00310034000201000005010801D8
:100850000B01000020002300260029002C002F009F
:10086000320000010000030106010901050505052C
:10087000070508080808020202020A0A0808040418
:100880000404010101010101010103030303030346
:100890000303040707070C0C0C0C0C0C0C0C0202D5
:1008A000020206060606060606060B0B0B0B0B0BD2
:1008B0000B0B01021020200808102040102040805F
:1008C0000201020108040201010204081020408014
:1008D00080402010080402018004020180402010A2
:1008E00008040201080402010102040810204080EB
:1008F000010204081020408000000A0B02090C0DC0
:100900000E080703040100000000000000000000C2
:1009100000000000000000000000000000000000D7
:100920000000000012111000000000000000000094
:100930000000000000000000000000000000455220
:10094000524F520D0A004F4B0D0A0000434C4F53BB
:100950004544000D0A2B4950442C002C206E65772D
:100960002070696E2073746174653A2000204E65B2
:10097000772073656E736F722073746174653A20AB
:100980000075706461746552656C6179537461744B
:1009900065416E6453656E644D6573736167652868
:1009A000292063616C6C656420616E64206D6573E1
:1009B000736167652073656E6420666F722073656E
:1009C0006E736F723A20002C206E65772070696E0E
:1009D0002073746174653A2000204E65772073653A
:1009E0006E736F722073746174653A200075706461
:1009F00061746552656C61795374617465416E64AC
:100A000053656E644D657373616765282920636162
:100A10006C6C656420616E64206D657373616765DD
:100A20002073656E6420666F722073656E736F72DB
:100A30003A200000BD2B11241FBECFEFD1E2DEBF54
:100A4000CDBF00E00CBF18E0A0E0B2E0ECEDFAE8AA
:100A500000E00BBF02C007900D92A231B107D9F799
:100A60002FE1A2E1B8E001C01D92AA39B207E1F777
:100A700015E0CBE1D5E000E006C021970109802F09
:100A8000FE010E94A342CA31D10780E00807A9F7FE
:100A90000E944E330C946C45B3CACF92DF92EF9212
:100AA000FF92CF93DF93EC016A017B01E889F9891A
:100AB00082E08083C11481EED806E104F104A1F044
:100AC00060E079E08DE390E0A70196010E94FB4190
:100AD0002150310941095109569547953795279578
:100AE000211580E1380798F0E889F989108260E8DB
:100AF00074E88EE190E0A70196010E94FB4121502D
:100B00003109410951095695479537952795EC8547
:100B1000FD853083EE85FF852083188EEC89FD8965
:100B200086E08083EA89FB89808180618083EA890D
:100B3000FB89808188608083EA89FB898081806865
:100B40008083EA89FB8980818F7D8083DF91CF91CB
:100B5000FF90EF90DF90CF900895CF93DF93EC015B
:100B6000FA013296E60FF71FDC019D012C1B3D0BAD
:100B7000CF01861B970B4D91442311F04193F5CF84
:100B8000AC01421B530B640F751FFB01329730837E
:100B900061507109FB012083DF91CF91089580910D
:100BA000B61B9091B71B009711F480E00895DC010B
:100BB000ED91FC910688F789E02D1995811123C0EC
:100BC0008091D11C9091D21C892B79F78DEF9FEFEA
:100BD0009093D21C8093D11C8091B61B9091B71B2F
:100BE000DC01ED91FC910680F781E02D1995809153
:100BF000B61B9091B71BDC01ED91FC910488F5893F
:100C0000E02D1995D2CF81E008959091DE0A9111DF
:100C1000FCCF91E09093DE0A9093DD0A2FEF2093B2
:100C2000DC0A1092DB0A260F2093DA0A9093D90A85
:100C30009091D90A880F892B8093D90A8091D80A7C
:100C40008130F9F41092D80A8091D90A8093BB00C0
:100C50008091BC0083FDF8CF85EC8093BC0080912F
:100C6000DE0A8130E1F38091DB0A861710F460918F
:100C7000DB0AA8EBBAE0E8E9FAE080E0861303C0FB
:100C8000089585EEEACF9D9191938F5FF7CFDC01B8
:100C9000ED91FC910190F081E02D1994EF92FF927B
:100CA0000F931F93CF93DF938C017B01D0E0C0E0C3
:100CB000F701EC0FFD1F6491662361F0D801ED91FF
:100CC000FC910190F081E02DC8011995892B11F05C
:100CD0002196EECFCE01DF91CF911F910F91FF9022
:100CE000EF900895AF92BF92CF92DF92EF92FF9272
:100CF0000F931F93CF93DF936C017B018B01040F44
:100D0000151FEB015E01AE18BF08C017D10759F0DF
:100D10006991D601ED91FC910190F081E02DC60121
:100D20001995892B79F7C501DF91CF911F910F910B
:100D3000FF90EF90DF90CF90BF90AF900895FC01AF
:100D4000538D448D252F30E0842F90E0821B930B30
:100D5000541710F0CF96089501970895FC01918DD6
:100D6000828D981761F0A28DAE0FBF2FB11D5D96D9
:100D70008C91928D9F5F9F73928F90E008958FEF7B
:100D80009FEF0895FC01918D828D981731F0828D2F
:100D9000E80FF11D858D90E008958FEF9FEF089586
:100DA000FC01918D228D892F90E0805C9F4F821BEA
:100DB00091098F739927089587EE9EE1F1DF21E075
:100DC000892B09F420E0822F08958FED9AE0E8DF67
:100DD00021E0892B09F420E0822F0895FC01A48DE5
:100DE000A80FB92FB11DA35ABF4F2C91848D90E04D
:100DF00001968F739927848FA689B7892C93A08930
:100E0000B1898C91837080648C93938D848D9813B9
:100E100006C00288F389E02D80818F7D808308954C
:100E2000EF92FF920F931F93CF93DF93EC0181E03A
:100E3000888F9B8D8C8D98131AC0E889F9898081E1
:100E400085FF15C09FB7F894EE89FF896083E88914
:100E5000F98980818370806480839FBF81E090E006
:100E6000DF91CF911F910F91FF90EF900895F62E93
:100E70000B8D10E00F5F1F4F0F731127E02E8C8D2D
:100E80008E110BC00FB607FCFACFE889F989808173
:100E900085FFF5CFCE01A2DFF2CFEB8DEC0FFD2F5A
:100EA000F11DE35AFF4FF0829FB7F8940B8FEA8948
:100EB000FB8980818062D0CFCF93DF93EC01888D56
:100EC0008823B1F0AA89BB89E889F9898C9185FDCD
:100ED00003C0808186FD0CC00FB607FCF7CF8C9154
:100EE00085FFF2CF808185FFEDCFCE0177DFEACF9E
:100EF000DF91CF91089580E090E0892B21F065DFAC
:100F000081110E94000080E090E0892B21F054DFE5
:100F100081110E94000080E090E0892B49F080E080
:100F200090E0892B29F00E94000081110E940000AE
:100F300080E090E0892B49F080E090E0892B29F057
:100F40000E94000081110C940000089581508231AC
:100F500008F05AC0E82FF0E08827EE54F84F8F4F82
:100F60000C94A342D207D607C407CA07CE070408C9
:100F7000D907DF07E307E907ED07F107F707FB07E5
:100F80000408FF0705080908809180008F77809387
:100F900080000895809180008F7DF9CF809180003E
:100FA000877FF5CF84B58F7784BD089584B58F7D15
:100FB000FBCF8091B0008F778093B000089580912F
:100FC000B0008F7DF9CF809190008F778093900053
:100FD0000895809190008F7DF9CF80919000877F58
:100FE000F5CF8091A0008F778093A0000895809125
:100FF000A0008F7DF9CF8091A000877FF5CF8091F1
:1010000020018F77809320010895809120018F7DAA
:10101000F9CF80912001877FF5CFCF93DF93282FE1
:1010200030E0F901E850F74F8491F901EE54F74FA1
:10103000D491F901E459F74FC491CC2399F081116F
:1010400085DFEC2FF0E0EE0FFF1FEE5AF74FA59172
:10105000B491EC91ED2381E090E009F480E0DF9120
:10106000CF91089580E090E0FACF1F93CF93DF9364
:10107000282F30E0F901E850F74F8491F901EE5440
:10108000F74FD491F901E459F74FC491CC23A1F063
:10109000162F81115BDFEC2FF0E0EE0FFF1FE85CF5
:1010A000F74FA591B4918FB7F894EC91111108C046
:1010B000D095DE23DC938FBFDF91CF911F910895F0
:1010C000DE2BF8CF3FB7F89480917C0A90917D0A8F
:1010D000A0917E0AB0917F0A26B5A89B05C02F3F3C
:1010E00019F00196A11DB11D3FBFBA2FA92F982F4E
:1010F0008827BC01CD01620F711D811D911D42E049
:10110000660F771F881F991F4A95D1F708958F9210
:101110009F92AF92BF92CF92DF92EF92FF926B01BC
:101120007C01D0DF4B015C01C114D104E104F10466
:10113000B1F0C8DF681979098A099B09683E7340D4
:101140008105910588F321E0C21AD108E108F10870
:1011500088EE880E83E0981EA11CB11CE5CFFF909D
:10116000EF90DF90CF90BF90AF909F908F900895B9
:101170002FB7F8946091780A7091790A80917A0A71
:1011800090917B0A2FBF0895CF92DF92EF92FF924A
:10119000CF93DF93EC01ECDF6B017C018091B61BF8
:1011A0009091B71BDC01ED91FC910084F185E02D5D
:1011B0001995892B61F4DCDF6C197D098E099F0973
:1011C00068397A438105910548F380E00DC080912C
:1011D000B61B9091B71BDC01ED91FC910284F38565
:1011E000E02D1995888381E0DF91CF91FF90EF90FA
:1011F000DF90CF9008953F924F925F926F927F92CF
:101200008F929F92AF92BF92CF92DF92EF92FF9216
:101210000F931F93CF93DF931F92CDB7DEB75C017F
:1012200088EB9BE1B1DF811116C010E000E0C8013E
:101230000F90DF91CF911F910F91FF90EF90DF9072
:10124000CF90BF90AF909F908F907F906F905F9066
:101250004F903F9008953090B81B198239EB832E40
:101260003BE1932EEE24E394F12CD12CC12C412CA4
:10127000512C32014394CE01019686DF8823A9F2D6
:1012800087010F5F1F4F8981F40181934F01282F40
:101290002F7730E0249DA001259D500D349D500DE9
:1012A0001124C40ED51E27E0440C551C661C771C67
:1012B0002A95D1F787FD2FC0F32DF07F3F2E8FEFBA
:1012C000800FD5018C93B0E3FB133CC0C801885458
:1012D000944E5ADF882309F4A8CFC7018654944E50
:1012E00053DF882309F4A1CF0E5F1F4FD501EC9186
:1012F000F0E0EE54F44EE780F12CFE2CEE248085D5
:10130000E80EF11C8091B81B81FF03C0B2E0EB0E28
:10131000F11C92E01AC078010530110509F0ABCF3D
:101320008FEF9FEF9093D21C8093D11C8091B61BBE
:101330009091B71BDC01ED91FC910488F589E02DBB
:10134000199573CF90E0F12CE12C692E712C601A65
:10135000710A8EEF882E99249A94C301800F911FF1
:101360008C159D0570F5CE0101960EDF882309F4DA
:101370005CCF8091CF1C9091D01C0097B1F0E0E33E
:101380003E1213C0D5012C91F401E21BF1099F011B
:10139000200F311FE216F30640F4DC01ED91FC91C1
:1013A0000190F081E02D698119950F3F110509F039
:1013B00028F48981F801EE54F44E86830F5F1F4FA5
:1013C000CCCF8091CF1C9091D01C892B09F02FCFCE
:1013D0000130B1E01B0708F028CF29CFEF92FF9230
:1013E0000F931F93CF93DF9300D01F92CDB7DEB73B
:1013F000FA0120E08E010F5F1F4F9E2F9F77EE0FA7
:10140000EF2FEE1FFF0BF195309709F09068D80190
:10141000A20FB11D9C932F5F309779F730E0FB014D
:10142000E21BF30B8483FB01E21BF30B3596D8011F
:10143000CD01801B910B821793071CF48D91819332
:10144000F7CF2F5F3F4F8091B61B9091B71B89015B
:10145000040F151F621B730B6B5F7F4FDC01ED9157
:10146000FC910280F381E02DA80119957C0180DEBA
:101470006093BA1C7093BB1C8093BC1C9093BD1CE2
:1014800081E00E151F0509F080E00F900F900F907E
:101490000F90DF91CF911F910F91FF90EF900895E2
:1014A0000F931F93CF93DF93EC0162DE68877987F8
:1014B0008A879B87E881F9810284F385E02DCE013C
:1014C000199597FF14C054DE088519852A853B8538
:1014D000601B710B820B930B0C811D812E813F8150
:1014E000601771078207930728F38FEF9FEFDF9153
:1014F000CF911F910F91089508958091760A909150
:10150000750A891B990B08950F931F93CF93DF934F
:10151000EC010A81802F8295880F807E0E81000F5A
:10152000000F082B8885082B1A85812F8295880F3C
:10153000807E1C85110F110F182B8E85182BE881CA
:10154000F9810280F381E02D4C8162EFCE01199583
:10155000E881F9810280F381E02D402F64EFCE0114
:101560001995E881F9810280F381E02D412F65EF23
:10157000CE01DF91CF911F910F911994FF920F939C
:101580001F93CF93DF931F92CDB7DEB78C01DC01A1
:10159000ED91FC910480F581E02D21E0AE014F5FDB
:1015A0005F4F60ED19958981883509F446C0803612
:1015B00009F04BC020E630E0F80132AB21ABD80196
:1015C000D0968C93D097ED91FC910480F581E02D1D
:1015D00026E0A801405F5F4F68E8C8011995F82E22
:1015E000D801ED91FC910480F581E02D22E1A80164
:1015F0004A5E5F4F6EE8C8011995F822D801ED9157
:10160000FC910480F581E02D21E0A801485D5F4F49
:1016100061EAC8011995F822D801ED91FC91048086
:10162000F581E02D27E0A801475D5F4F61EEC8011D
:101630001995F822C80168DF0CC028E530E0D80110
:10164000D2963C932E93D197BACFF80112AA11AA41
:10165000F12CF801F3AA8F2D0F90DF91CF911F91FC
:101660000F91FF90089585ED8093BC008091BC00A0
:1016700084FDFCCF1092DE0A089520914C0A260FBB
:101680003327331F21323105ECF42091DE0AFC01AF
:1016900090E080E0243069F082E00895A0914C0A47
:1016A0002191AC01465D554FA40FB52FB11D2C9370
:1016B0000196861798F380914C0A680F60934C0A44
:1016C00080E0089581E008951092DE0A81E0809321
:1016D000DD0A1092D80A61E084E1C7DC61E085E1AF
:1016E000C4DCE9EBF0E080818E7F808380818D7F98
:1016F000808388E48093B80085E48093BC000895DB
:10170000089508950895E091750A8091760AE81782
:1017100030F4F0E0E856F54F808190E008958FEFC7
:101720009FEF08959091750A8091760A2FEF3FEF11
:10173000981748F4E92FF0E0E856F54F208130E0A3
:101740009F5F9093750AC9010895CF92DF92EF923F
:10175000FF920F931F93CF93DF937C01CB018A01FC
:101760002091740A222389F0EB016B01C40ED51E6F
:10177000CC15DD0561F06991D701ED91FC910190E7
:10178000F081E02DC7011995F3CF642F76DFC801F2
:10179000DF91CF911F910F91FF90EF90DF90CF904D
:1017A0000895CF93DF931F92CDB7DEB76983209161
:1017B000740A2223F9F02091710A203258F021E0B6
:1017C00030E0FC013383228390E080E00F90DF91D2
:1017D000CF9108958091720AE82FF0E0E65FF54F0F
:1017E000998190838F5F8093720A8093710A81E060
:1017F00090E0ECCF61E0CE0101963FDFF8CF209181
:10180000710A81E0213208F044C08091DE0A811122
:10181000FCCF8091730A92E09093DE0A91E090935E
:10182000DD0A9FEF9093DC0A1092DB0A2093DA0A1C
:10183000AAE0BAE0E8EBFAE090E0291331C0109298
:10184000D90A9091D90A880F892B8093D90A80915F
:10185000D80A813049F51092D80A8091D90A80932C
:10186000BB008091BC0083FDF8CF85EC8093BC0069
:101870008091DE0A8230E1F38091DC0A8F3FB1F083
:101880008091DC0A8032A1F08091DC0A803391F0F3
:1018900084E01092720A1092710A1092740A0895EC
:1018A0003D9131939F5FC9CF85EEE0CF80E0F1CFCE
:1018B00082E0EFCF83E0EDCFCF93C42FFC0184A96A
:1018C00091E09093740A8093730A1092720A1092B6
:1018D000710A8CE79BE065DF6C2F8CE79BE061DF92
:1018E0008CE79BE08CDF81E0CF910895DB01ED91E7
:1018F000FC9111970190F081E02D682FCD01199492
:101900001F93CF93DF93EC01862F142F69817A8187
:101910009881906221E02093740A9093730A109248
:10192000720A1092710AE2DF69817A81812FDEDF0B
:1019300089819A81DF91CF911F9161CFDC01BE5FD8
:10194000FC01EE5FFD4F8D919C9120813181821BC6
:10195000930B97FD9E5F08958F929F92AF92BF92D7
:10196000CF92DF92EF92FF924B015C0101DC6B01A1
:101970007C01FEDB6C197D098E099F0968157905CC
:101980008A059B0510F4F4DBF4CFFF90EF90DF9015
:10199000CF90BF90AF909F908F900895E9DB672B19
:1019A000682B692B51F4E4DBE3DB6093060A709348
:1019B000070A8093080A9093090A089589309105CF
:1019C00040F48630910550F4039759F089E293E092
:1019D00008958031910511F08497C1F782E293E078
:1019E00008958BE193E008959C01AEECB8E1E0E04E
:1019F0008C91681729F0EF5F1B96E632C9F7EFEF7D
:101A00009BE09E9FF0011124E253F74ED901019013
:101A10000D929A95E1F7C9010895CF93DF9300D015
:101A20001F921F92CDB7DEB7A5EABAE1E0E01496A7
:101A30009C911497891729F0EF5F1596E232B9F758
:101A4000EFEF85E08E9FF0011124EB55F54EDE019E
:101A5000119601900D928A95E1F729813A814B8187
:101A60005C816D8170E080E090E00F900F900F90AE
:101A70000F900F90DF91CF910895EF92FF920F9307
:101A80001F93CF93DF93EC018B017A0171DBFE0191
:101A9000E85FFE4F60837183828393838C819D8195
:101AA000DC01ED91FC910280F381E02DA701B801EA
:101AB000DF91CF911F910F91FF90EF9019941F9399
:101AC000CF93DF93EC01162F53DBFE01E85FFE4F4F
:101AD00060837183828393838C819D81DC01ED918E
:101AE000FC910190F081E02D612FDF91CF911F914A
:101AF0001994DC01ED91FC910688F789E02D199588
:101B000091E0811101C090E0892F0895CF93DF9378
:101B1000EC01E881F9810084F185E02D1995892B8C
:101B200021F48F85DF91CF91089581E0FBCFDC0117
:101B30001C96ED91FC9180819181DC01ED91FC91ED
:101B40000680F781E02D19948FEF9FEF0895CF93D2
:101B5000DF931F92CDB7DEB7DC01ED91FC910288D7
:101B6000F389E02D41E050E0BE016F5F7F4F199592
:101B7000019731F4898190E00F90DF91CF91089522
:101B80008FEF9FEFF9CFCF93DF931F92CDB7DEB7E3
:101B90006983DC01ED91FC910280F381E02D41E04D
:101BA00050E0BE016F5F7F4F19950F90DF91CF918D
:101BB0000895089590E080E00895CF93DF93FC01AD
:101BC000108211821282148215821682DC0117960D
:101BD0008AE1ED0119928A95E9F782E08383DF912A
:101BE000CF910895DF92EF92FF920F931F93CF93BF
:101BF000DF938C01D62EE72EEA01F22E0E94CF054C
:101C00008823A9F1F80101900020E9F73197E01B42
:101C1000F10BCE010796E80FF91FE130F14038F5DE
:101C200045E050E068EB7BE1C8010E94AD05AC01E6
:101C3000ED2DFE2DDC01A854B44E9F012C0F3D1F4D
:101C4000E217F30719F081918D93FACF259781E37D
:101C5000F11001C080E34C0F5D1F68EB7BE1DF9169
:101C6000CF911F910F91FF90EF90DF90B7CB80E065
:101C7000DF91CF911F910F91FF90EF90DF9008952A
:101C8000FB0101900020E9F73197AF01461B570B8C
:101C9000DC01ED91FC910280F381E02D1994CF934A
:101CA000DF93BC018FED9AE00E944E06EC0169E9DA
:101CB00077E08FED9AE0E4DF8C0F9D1FDF91CF91ED
:101CC00008958F929F92AF92BF92EF92FF920F93DF
:101CD0001F93CF93DF93CDB7DEB7A1970FB6F894DC
:101CE000DEBF0FBECDBF7C01FA01CB0119A22230AD
:101CF00008F42AE08E010F5D1F4F822E912CB12C2B
:101D0000A12CBF01A50194010E94FB41F901CA0168
:101D10006A3004F5605DD8016E938D01232B242B6E
:101D2000252B79F790E080E0109719F0BD01C701ED
:101D3000A7DFA1960FB6F894DEBF0FBECDBFDF912F
:101D4000CF911F910F91FF90EF90BF90AF909F9018
:101D50008F900895695CDFCF242F462F50E070E00C
:101D600060E0AFCFCF93DF93AB01682F8FED9AE0A8
:101D7000F3DFEC0169E977E08FED9AE081DF8C0F0A
:101D80009D1FDF91CF9108958F929F92AF92BF9246
:101D9000CF92DF92EF92FF920F931F93CF93DF9337
:101DA0007C018B014C0182E0880E911C5701E5E01B
:101DB000AE0EB11CD0E0C0E0F40161914F014AE0E9
:101DC00050E0C801C9DF6C016EE2C8010E944706FD
:101DD0008C0D9D1DC80FD91F8A149B0469F74AE01A
:101DE00050E0F7016581C801B7DF8C0F9D1FDF91BF
:101DF000CF911F910F91FF90EF90DF90CF90BF9008
:101E0000AF909F908F900895CF93DF93D0E0C0E084
:101E1000009729F0BC018FED9AE032DFEC0169E90F
:101E200077E08FED9AE02CDF8C0F9D1FDF91CF9133
:101E300008956115710509F023CF90E080E00895C1
:101E40000F931F93CF93DF93EC018B0161E373E05A
:101E500088819981EEDFB801888199810E944E06C0
:101E600069E977E088819981E4DF88819981DC01E3
:101E7000ED91FC910680F781E02D199560E070E00E
:101E8000CB01DF91CF911F910F9141C9CF93DF9388
:101E9000EC01862F69817A819881906221E02093FC
:101EA000740A9093730A1092720A1092710A1EDDDE
:101EB00089819A81A4DC888161E080620E940506A4
:101EC0001092750A8093760A89819A81DC01ED91DE
:101ED000FC910284F385E02D1995DF91CF9108954F
:101EE000FF920F931F93CF93DF93EC01162F042FD4
:101EF000862F8770F82E64E1183008F065E1CE0176
:101F0000C5DF41E050E060E070E004C0440F551FC1
:101F1000661F771FFA94D2F7002361F0482B62E125
:101F2000183008F063E1CE01DF91CF911F910F913E
:101F3000FF90E6CC40954823F2CFCF93FC0123815C
:101F400040812830B0F4F3E02F9FC0011124805865
:101F5000954FC42FC77062E1483008F063E196DF07
:101F600090E002C095958795CA95E2F78170CF9170
:101F70000895842F52D8FBCFEF92FF920F931F93B7
:101F8000CF93DF938C017A01D22FFC0184A991E0D9
:101F90009093740A8093730A1092720A1092710AD5
:101FA0008CE79BE0FEDB8CE79BE029DC6D2FD132D8
:101FB00008F060E2F80184A90E940506182F10922B
:101FC000750A8093760AC0E08091750A181749F067
:101FD0008CE79BE0A7DBF701EC0FF11D8083CF5F5F
:101FE000F3CF81E0CD1380E0DF91CF911F910F916E
:101FF000FF90EF9008950E94FF44AF92BF92CF925E
:10200000DF92EF92FF920F931F93CF93DF936B01B9
:10201000EA01FB01448155814115510561F1FC0143
:10202000248135812115310531F12417350718F147
:10203000C217D30710F0E9012197FC01008111813B
:10204000C801AA24AA94BB24BA947801EC0EFD1E00
:10205000E816F906A0F0F601608171810E945245F0
:10206000009769F09C01201B310BC217D30708F0C1
:1020700059010196EDCFAA24AA94BB24BA94C501B4
:10208000DF91CF911F910F91FF90EF90DF90CF9054
:10209000BF90AF900895FC0124813581FB014481FC
:1020A000558124173507A0F0FC01808191810097AC
:1020B00079F0FB01608171816115710549F0241B84
:1020C000350B820F931F0E94334521E0892B09F0C5
:1020D00020E0822F08950F931F93CF93DF93EC019D
:1020E00088819981009759F02A813B81261737070B
:1020F00030F081E0DF91CF911F910F9108958B0116
:102100006F5F7F4F0E941F44009759F09983888327
:102110001B830A832C813D81232B59F7FC011082FC
:10212000E8CF80E0E7CFEF92FF920F931F93CF931A
:10213000DF9341155105A9F07B01EC010C811D8154
:10214000040F151FB801C7DF882361F0288139818A
:102150008C819D81B701820F931F0E943C451D8396
:102160000C8381E0DF91CF911F910F91FF90EF9051
:10217000089541E050E06DE773E0D5CFEF92FF9214
:102180000F931F93CF93DF9300D01F92CDB7DEB78D
:102190007C01862F4AE08E010F5F1F4FB80190E04F
:1021A0000E94DA3AF80101900020E9F73197AF0177
:1021B000401B510BB801C701B6DF0F900F900F9075
:1021C0000F90DF91CF911F910F91FF90EF900895A5
:1021D000CF93DF931F921F92CDB7DEB769831A8228
:1021E00041E050E0BE016F5F7F4F9DDF0F900F9089
:1021F000DF91CF910895CF93DF93EC01888199818E
:10220000009711F00E94D739198218821D821C8212
:102210001B821A82DF91CF910895EF92FF920F9364
:102220001F93CF93DF938C017B01EB01099000207A
:10223000E9F72197C61BD70BBE014DDF811108C0FE
:10224000C801DF91CF911F910F91FF90EF90D3CFF5
:10225000F801D583C483B70180819181DF91CF914B
:102260001F910F91FF90EF900C943C45EF92FF92DD
:102270000F931F93CF93DF93EC017B011982188298
:102280001B821A821D821C82FB0101900020E9F74B
:1022900031978F01061B170BB8011DDF811108C094
:1022A000CE01DF91CF911F910F91FF90EF90A3CFBF
:1022B0001D830C83B70188819981DF91CF911F9194
:1022C0000F91FF90EF900C943C45EF92FF920F938B
:1022D0001F93CF93DF93EC017B01042F6BE977E031
:1022E000C5DFC701DDD8002E000C110B97FD09C01A
:1022F0000817190731F0682FCE016ADFC701D0D85F
:10230000F5CFCE01DF91CF911F910F91FF90EF900C
:102310000895FC0180819181009711F00C94D739C8
:102320000895CF92DF92EF92FF920F931F93CF9376
:10233000DF9300D000D0CDB7DEB77C018B016A01FE
:102340006BE977E0CE01019691DF60E170E0CE01AC
:102350000196C1DED80112966C91CE0101960EDF76
:10236000CE01019606DFF8016381CE01019606DFFA
:10237000CE010196FEDED80114966C91CE01019635
:10238000FDDECE010196F5DEF8016581CE010196F4
:10239000F5DE69817A81D701ED91FC910088F189A0
:1023A000E02DA601C70119958C01CE010196B1DF80
:1023B000C80126960FB6F894DEBF0FBECDBFDF91E1
:1023C000CF911F910F91FF90EF90DF90CF900895E4
:1023D000EF92FF920F931F93CF93DF93EC0119823B
:1023E00018821B821A821D821C8261157105F9F008
:1023F0008B01CB010E94AA3A7C01BC01CE016BDEAD
:10240000811108C0CE01DF91CF911F910F91FF90F4
:10241000EF90F1CEFD82EC82B80188819981DF9145
:10242000CF911F910F91FF90EF900C94A33ADF9101
:10243000CF911F910F91FF90EF9008952F923F92AF
:102440004F925F926F927F928F929F92AF92BF92C4
:10245000CF92DF92EF92FF920F931F93CF93DF9370
:10246000CDB7DEB76A970FB6F894DEBF0FBECDBF0B
:102470002C014A015B0119011C8B0B8BFE8AED8A32
:102480006BE977E0CE010D96F1DE60E470E0CE01FD
:102490000D9621DE0E94B8086F8B788F898F9A8FF6
:1024A00060E070E0CB010E948708D2018D919C9181
:1024B000DC01ED91FC910084F185E02D1995181651
:1024C00019060CF082C1F20180819181DC01ED914D
:1024D000FC910284F385E02D1995181619062CF746
:1024E000682FCE010D9674DE2114310481F0B10104
:1024F000CE0101966DDFBE016F5F7F4FCE010D965D
:10250000CADD182FCE01019604DF1111D3C1EB896A
:10251000FC89309781F0BF01CE01019659DFBE01E1
:102520006F5F7F4FCE010D96B6DD182FCE0101965D
:10253000F0DE1111C1C12D893E892115310581F0CF
:10254000B901CE01019644DFBE016F5F7F4FCE011E
:102550000D96A1DD182FCE010196DBDE1111AEC163
:1025600063E579E0CE01019633DFBE016F5F7F4FF7
:10257000CE010D9690DD182FCE010196CADE1123F3
:1025800009F483C0D2016D917C914CE2CE01019699
:102590009CDE89819A810097A9F10E947D3A6B01A6
:1025A000CE010196B6DEF201608171814AE3CE016F
:1025B00001968BDE89819A81009741F10E947D3AD4
:1025C0008B01CE010196A5DE3601FFEF6F1A7F0A5F
:1025D000660C771C640C751C0150110908F440C08E
:1025E000D2018D919C91DC01ED91FC910084F185EB
:1025F000E02D1995892B71F460E070E0CB010E9409
:102600008708EECF60E070E0CB01C9CF60E070E0FA
:10261000CB01D6CFF301E080F180D2018D919C9166
:10262000DC01ED91FC910284F385E02D1995F70111
:10263000E05FFD4F408151819A012F5F3F4F317024
:10264000D701AE5EBD4F6D917C912617370721F201
:10265000E40EF51ED70150968C9331832083BCCFB6
:10266000F6013196EE0FFF1FE40DF51D808191817B
:10267000DC01ED91FC910084F185E02D19956BE969
:1026800077E0CE010D96C9DD10CF6CE479E0CE0184
:1026900001969EDEBE016F5F7F4FCE010D96FBDC83
:1026A000182FCE01019635DE112309F4FECE0989DB
:1026B0001A890850110969E977E0CE010796D6DD3D
:1026C000A801BE01695F7F4FCE010D9696DCF12C0B
:1026D000E12C97FD14C009891A890850110969E98C
:1026E00077E0CE010196C2DDA801BE016F5F7F4F8A
:1026F000CE010D9682DC7C01CE0101960ADECE0170
:10270000079607DE670189899A89E816F90670F449
:102710006D847E846CE270E0C3018E0D9F1D0E946B
:1027200028458C0106191709892B11F40FEF1FEFAB
:102730000E151F0510F4680187016BE977E0CE01E3
:10274000019694DDE988FA88CE14DF04D0F40E15E2
:102750001F0508F47801ED85FE85EE0DFF1D108143
:1027600010826D857E856C0D7D1DCE0101966115F3
:10277000710549F152DD8D859E85E80EF91EF70140
:10278000108389819A81C12CD12C7601009719F090
:102790000E947D3A6B01CE010196BBDDF5E0CF16BC
:1027A000D10408F06CCF2FEFC21AD20ACC0CDD1C7A
:1027B000F201EC0DFD1D0190F081E02D309709F440
:1027C0005ECF17865CCF17DDD6CF0E94B8082F8961
:1027D000388D498D5A8D621B730B840B950B6815D0
:1027E00079058A059B0508F45BCECD84DE84C1148F
:1027F000D10431F009891A8976010115110521F5F5
:102800006BE977E0CE010D9608DD10E0CE010D9664
:1028100080DD812F6A960FB6F894DEBF0FBECDBF64
:10282000DF91CF911F910F91FF90EF90DF90CF90AC
:10283000BF90AF909F908F907F906F905F904F90E0
:102840003F902F900895750157013FEFA31AB30AE7
:10285000D7018C91082E000C990B0E940240892B05
:1028600091F7015011090C0D1D1DF8018081082EF2
:10287000000C990B0E940240892B31F00E151F05A8
:1028800018F001501109F1CFA8014F5F5F4F4E19A9
:102890005F095A8B498BCE14DF0420F4B701C601BF
:1028A0000E940345ED85FE8589899A89E80FF91F05
:1028B0001082A6CF11E0AACF12E0A8CF13E0A6CFD6
:1028C000EF92FF920F931F939B01F12CE12C8A0151
:1028D00048EE53E060E070E0B1DD1F910F91FF9092
:1028E000EF900895FF920F931F93CF93DF93EC0126
:1028F00060E070E0CB010E9487080C851D85FE8496
:1029000061E373E0D8018D919C9193DA64E472E005
:10291000F801808191810E944E064AE050E06F2DBF
:10292000D8018D919C9118DA69E977E0F8018081EE
:1029300091817FDAD8018D919C91DC01ED91FC9120
:102940000680F781E02D199560E070E0CB010E94D0
:1029500087081F864EE359E066E479E08C859D8503
:10296000AFDFFE01EE5EFD4F11821082C05FDD4FD2
:1029700019821882DF91CF911F910F91FF900895D6
:102980008F929F92AF92BF92EF92FF920F931F93FD
:102990000E94B8084B015C010E94B80868197909C7
:1029A0008A099B09603177428105910558F56BE4EE
:1029B00079E084E89FE144DAF12CE12C0EE319E0A0
:1029C00026E439E048EC50E060E070E084E89FE104
:1029D00035DD813081F464E670E080E090E00E94B3
:1029E000870881E01F910F91FF90EF90BF90AF900B
:1029F0009F908F90089564E670E080E090E00E94E0
:102A00008708CACF80E0EECFEF92FF920F931F931B
:102A1000F12CE12C10E000E030E020E04AE050E052
:102A200060E070E00BDD1F910F91FF90EF90089533
:102A30002F923F924F925F926F927F928F929F92CE
:102A4000AF92BF92CF92DF92EF92FF920F931F93BC
:102A5000CF93DF9300D000D0CDB7DEB76C015B0120
:102A60005A83498360E070E0CB010E948708F12C13
:102A7000E12C160120E1220E311CC6018E5E9D4F15
:102A80009C838B83E981FA81EE16FF0608F058C01B
:102A9000C1010E949E0C8C0189819A818E199F0927
:102AA0000817190708F041C00115110509F43FC0C6
:102AB00048012501C1010E949E0C009789F1EB811C
:102AC000FC816080718020E032E0261937093E8366
:102AD0002D838216930614F49E828D82ED81FE81F1
:102AE0008E179F0714F49E838D83B101660D771DA9
:102AF0004D815E81C2010E9403452D813E81620E9F
:102B0000731E31E07322EB81FC81718260822D8122
:102B10003E81821A930A420E531E8114910451F68B
:102B2000A00EB11EE00EF11EADCF8C01C1CFF6019B
:102B30008785882309F4A6CF8485958565DFA2CF94
:102B4000C70126960FB6F894DEBF0FBECDBFDF914A
:102B5000CF911F910F91FF90EF90DF90CF90BF909A
:102B6000AF909F908F907F906F905F904F903F902D
:102B70002F9008950F931F93CF93DF93EC0160E0A4
:102B800070E0CB010E9487088E01005F1F4FC801D3
:102B90000E949E0C892B31F48F85882319F08C8537
:102BA0009D8532DFC801DF91CF911F910F910C9469
:102BB0009E0CCF92DF92EF92FF920F931F93CF93D1
:102BC000DF938C017B016A0160E070E0CB010E9421
:102BD0008708D8011C96CD91DC911D971E961C91FB
:102BE00061E373E08881998124D96DE572E0888181
:102BF00099810E944E064AE050E0612F88819981B8
:102C0000ABD86CE2888199810E944706A60170E0EA
:102C100060E02AE08881998154D869E977E0888169
:102C2000998107D988819981DC01ED91FC91068019
:102C3000F781E02D199560E070E0CB010E948708D4
:102C40004EE359E06BE572E0CE013ADE813059F097
:102C500080E090E0DF91CF911F910F91FF90EF9076
:102C6000DF90CF90089588819981DC01ED91FC91EE
:102C70000280F381E02DA601B70119958881998121
:102C8000DC01ED91FC910680F781E02D1995F12C86
:102C9000E12C0EE319E02FE432E040E157E260E07E
:102CA00070E0CE01CBDB813099F6C601D3CFBF9265
:102CB000CF92DF92EF92FF920F931F93CF93DF9308
:102CC0006C017B018A01DC01ED91FC910488F5899E
:102CD000E02D199560E070E0CB010E948708F601B5
:102CE000EE5EFD4F11821082329711821082F60142
:102CF000C485D585B68461E373E08881998199D8CC
:102D000069E372E0888199810E944E064AE050E0B2
:102D10006B2D8881998120D86CE2888199810E94ED
:102D200047066BE172E0888199810E944E0665E357
:102D300072E0888199810E944E06B701888199814D
:102D400078D862E372E0888199810E944E06A801DA
:102D500070E060E02AE0888199810E94610E60E362
:102D600072E0888199810E944E062AE048E750E08F
:102D700060E070E0888199810E94610E69E977E0E6
:102D80008881998156D888819981DC01ED91FC91E7
:102D90000680F781E02D199560E070E0CB010E947C
:102DA000870880E2E82E82E0F82E0EE319E026E4A0
:102DB00039E048EF54E261E070E0CE013FDB91E0A2
:102DC000813009F090E0F6019787892F90E0DF913C
:102DD000CF911F910F91FF90EF90DF90CF90BF9018
:102DE0000895EF92FF920F931F93CF93DF93CDB788
:102DF000DEB765970FB6F894DEBF0FBECDBF082FC4
:102E0000162F682FCE0101960E94F40C8C819D81B3
:102E100099270E94DE0C7C018A814AE0BE01645F32
:102E20007F4F90E00E94DA3A4AE0BE016F5E7F4F2A
:102E3000802F90E00E94DA3A113009F045C06BE42F
:102E400073E084ED99E00E943C4569E573E084ED10
:102E500099E00E941D45B70184ED99E00E941D454F
:102E600069E573E084ED99E00E941D456BE573E030
:102E700084ED99E00E941D4569E573E084ED99E0D9
:102E80000E941D45BE016F5E7F4F84ED99E00E9458
:102E90001D4569E573E084ED99E00E941D456DE5EF
:102EA00073E084ED99E00E941D4584ED99E06596FC
:102EB0000FB6F894DEBF0FBECDBFDF91CF911F914B
:102EC0000F91FF90EF90089560E473E0123011F4D9
:102ED00064E373E080EC99E00E943C4569E573E0AF
:102EE00080EC99E00E941D456BE573E080EC99E071
:102EF0000E941D4569E573E080EC99E00E941D4544
:102F0000BE016F5E7F4F80EC99E00E941D4569E530
:102F100073E080EC99E00E941D4564E673E080EC6C
:102F200099E00E941D4569E573E080EC99E00E94FC
:102F30001D456BE573E080EC99E00E941D4569E555
:102F400073E080EC99E00E941D45BE01645F7F4FF5
:102F500080EC99E00E941D4580EC99E0A8CF90E0BC
:102F600083569E4F0C94C241CF92DF92EF92FF9214
:102F70000F931F93CF93DF9300D01F921F92CDB773
:102F8000DEB70EEC18E1F801F0808F2D0E940D0DD8
:102F9000298366EF75E08FED9AE00E944E066AE0A5
:102FA00070E08F2D0E94B20E66ED75E08FED9AE015
:102FB0000E944E068F2DD3DF6AE070E00E94B20EB1
:102FC00069EB75E08FED9AE00E944E0689810E94C0
:102FD0000D086C01990FEE08FF082AE0B701A60161
:102FE000F7FE0DC06DE28FED9AE00E944706442780
:102FF0005527BA014C195D096E097F092AE08FED4A
:103000009AE00E94610E69E977E08FED9AE00E94F4
:10301000400E055F1F4FFAE100371F0709F0B3CFDD
:1030200087E096E00F900F900F900F900F90DF9138
:10303000CF911F910F91FF90EF90DF90CF900C9464
:103040004F0E2F923F924F925F926F927F928F928C
:103050009F92AF92BF92CF92DF92EF92FF920F9327
:103060001F93CF93DF93CDB7DEB7A3970FB6F89436
:10307000DEBF0FBECDBF40E052EC61E070E08FEDEF
:103080009AE00E944D051092750A1092760A1092ED
:10309000720A1092710A0E94640B80E89BE0909380
:1030A0004B0A80934A0A81E89BE090934F0A8093F1
:1030B0004E0A86E693E00E94040F83E793E00E94A5
:1030C000040FF12CE12C11E001E00093740A10933D
:1030D000730A1092720A1092710A8CE79BE00E94A8
:1030E000FF0B8111C0C06FE773E08FED9AE00E9483
:1030F000190F103130F46BE573E08FED9AE00E9408
:10310000190F40E150E0612F8FED9AE00E94AC0E64
:103110008EE993E00E94040F2FEFE21AF20A1F5F7C
:103120001F3799F68EEB93E0EF2811F084ED93E0D2
:103130000E94040F0EEC18E18EEBE82E8BE0F82EC7
:103140006801212C98EE692E93E0792E26EDA22EAF
:103150002FE1B22E35ED832E3EE1932EF6018181D3
:10316000823009F0AEC08381833009F0AAC050805C
:103170004084F185FAA3852D0E940D0D342E2983FC
:103180003A834B835C836D83842D90E0FC01EE5485
:10319000F74F4491FC01E459F74F64916623C9F05D
:1031A00070E0660F771FFB01E25CFB4F25913491C5
:1031B000FB01E85CF74FA591B4916FB7F894F90162
:1031C0007081542F509557235083EC914E2B4C9384
:1031D0006FBFF7019183808382E390E093838283C2
:1031E00088E592E0958384837782668211861086D3
:1031F00012861486138616861586108A1786128AFA
:10320000118A148A138A168A158A108E178A128ECA
:10321000118E148E138E168E158E10A2178E12A27A
:1032200011A214A213A210A617A212A611A614A6E8
:1032300013A616A615A69AA1923009F05BC03320FA
:1032400049F196868586852D90E0908B87876EE183
:1032500074E08FED9AE00E944E066AE070E0852DE2
:103260000E94B20E2EC0843009F059CF62EA73E09A
:103270008FED9AE00E94190F103130F46BE573E086
:103280008FED9AE00E94190F60E170E0812F0E949B
:10329000B20E45CF64EF73E08FED9AE00E944E06C8
:1032A0004AE050E0652D8FED9AE00E94AC0E87EB6E
:1032B00093E00E944F0E87E993E00E944F0E222474
:1032C0002394FBE0CF0ED11C27E3E20EF11C88EE25
:1032D000E81683E1F80609F041CF2220A9F183EE38
:1032E00092E00E944F0E68E873E180E090E00E9457
:1032F000AC0CF3CFEAA1E13021F731100EC0852DDF
:1033000090E0F701B68EA58E90A3878FB4A2A3A2FA
:1033100096A385A368E773E09CCF6EE473E08FED1E
:103320009AE00E944E064AE050E0652D8FED9AE04B
:103330000E94AC0E8EE093E00E944F0E8EEE92E063
:103340000E944F0E232CBDCF61E2C62E62E0D62E26
:1033500070E8E72E7AE0F72EECE78E2EEBE09E2E5B
:10336000F0E8AF2EFBE0BF2EA1E86A2EABE07A2E8C
:10337000F60181916F01883008F087E0F7018083C2
:10338000928281821092750A1092760A1092720AC5
:103390001092710A0E94640BB0924B0AA0924A0AE2
:1033A00070924F0A60924E0A4FEF60E0C7010E9490
:1033B000800C4FEF61E0C7010E94800CF3E0EF0E3C
:1033C000F11C29E2C21622E0D20691F648EEA42EA4
:1033D00043E1B42E212C312C21012394F80170807B
:1033E000C38086809780F180CE0101960E94DD0D1A
:1033F0007F82FE8281E2FE013196D50101900D921D
:103400008A95E1F7F2E0FF12AFC023E0C212ACC030
:10341000872D0E940D0DF22E632E4BA3E52E2983DE
:103420003A834B83EC826D8397E09E1508F4F5C0D8
:10343000EC9C60011124F601E058F54F6F01F1E0BA
:10344000FAA39F1508F01AA26AA1C6010E94460FAE
:103450009F2D9770B201A10104C0440F551F661F34
:10346000771F9A95D2F7409548236AA1C6010E941A
:10347000800C872D74DDD82E6EEE74E08FED9AE00F
:103480000E944E066AE070E0872D0E94B20EC401D1
:103490000E94040F65EC74E08FED9AE00E944E06E6
:1034A0006AE070E08D2D0E94B20E21E02D1538F4F7
:1034B000872D90E060E083569E4F0E94D941872D72
:1034C0004EDDD82E8BA1882309F4C9C0662021F0D7
:1034D00081E0D11080E0D82E6DE974E08FED9AE0A4
:1034E0000E944E066AE070E08D2D0E94B20E97E0B9
:1034F0009E1508F4B6C0E3E0EE9EC00111244D2DE8
:103500006F2D8058954F0E94700F67E774E08FED24
:103510009AE00E944E068F2D0E940D086C01990FB3
:10352000EE08FF082AE0B701A601F7FE0DC06DE224
:103530008FED9AE00E94470644275527BA014C199F
:103540005D096E097F092AE08FED9AE00E94610E05
:1035500069E977E08FED9AE00E94400E6AEF70E033
:1035600080E090E00E94AC0C055F1F4FF1E2AF0ECF
:10357000B11C2AE10037120709F030CF88E594E04A
:103580000E944F0E80E79AE10E94BE0A9091A31A12
:10359000992311F0811104C087E895E00E944F0E35
:1035A0008091A11A9091A21A8835910509F45EC004
:1035B0008036910509F05DC089E695E00E944F0EC6
:1035C0008FEF94E00E944F0E0E94B8080E94B80846
:1035D0006093060A7093070A8093080A9093090A79
:1035E00085EA95E00E944F0EA3960FB6F894DEBFD1
:1035F0000FBECDBFDF91CF911F910F91FF90EF9044
:10360000DF90CF90BF90AF909F908F907F906F9002
:103610005F904F903F902F9008958F2D90E0FC0188
:10362000EE54F74F2491FC01E459F74FE491EE2357
:1036300009F41FCF8E2F90E0880F991FFC01E25CE8
:10364000FB4FA591B491FC01E85CF74F85919491F3
:103650008FB7F894EC912E2B2C938FBF0ACFD62CDA
:103660003BCF6D2D8F2D0E9435084FCF8DE395E018
:10367000A5CF80E295E0A2CF0F931F93CF93DF9366
:103680008C0180E06115710551F0EB01099000207B
:10369000E9F721978C2F861B8A3108F089E1F80120
:1036A000C381C770F8E08F9FC0011124C82BF801B7
:1036B000C38384818F718483C695C695C695CA31AC
:1036C00008F0C9E1D0E0AE01C80107960E94434569
:1036D000C00FD11F1F82C801DF91CF911F910F91A1
:1036E0000895EF92FF920F931F93CF93DF93CDB77F
:1036F000DEB7C857D1090FB6F894DEBF0FBECDBFF5
:103700008E010E571F4FF801E190F1908F010E943A
:10371000B808AB01BC012AE08FED9AE00E94610E6F
:1037200065E074E08FED9AE00E94190F9801A701FF
:1037300068E770E0CE0101960E94853BBE016F5F95
:103740007F4F8FED9AE00E94190F8FED9AE00E9453
:103750005C07C858DF4F0FB6F894DEBF0FBECDBF71
:10376000DF91CF911F910F91FF90EF900895CF922D
:10377000DF92EF92FF920F931F93CF93DF93CDB71A
:10378000DEB76B970FB6F894DEBF0FBECDBF8C01CE
:103790007B016A011F938F9384E992E09F938F933B
:1037A000A0DF1092921B1092911B8091951B8F7E2F
:1037B0008093951BAE01465E5F4F69E573E0C801DB
:1037C0000B960E94B33A0F900F900F900F9010E05D
:1037D000009709F48FC0153009F48CC00E94603A3C
:1037E0009C011230D9F078F41130A9F02093931B8A
:1037F000AE01465E5F4F69E573E090E080E00E94B5
:10380000B33A1F5FE5CF133009F462C0143071F78B
:103810008093961BEDCF8093971BEACF9091951BD9
:10382000987F822F8770982B9093951BF7012430F7
:10383000310509F045C020E07F018081882301F136
:103840008A3394F480538295807F31813A3394F4A3
:103850003053A1E0B0E0AC0FBD1FA20FB11D830F2C
:103860008C932F5F3296E8CF813614F08755EBCFDB
:103870008753E9CF313614F03755EBCF3753E9CFC3
:103880004091941B47702A3108F029E188E0289F75
:1038900090011124422B4093941B9F71906C909344
:1038A000951B4695469546954A3108F049E150E00A
:1038B000BE016F5F7F4F88E99BE10E94034598CF6F
:1038C000EC0DFD1D1082B70181E99BE1D5DE90CFA3
:1038D0008091951B877F41E050E0232B11F450E04D
:1038E00040E093E0440F551F9A95E1F7842B8093B5
:1038F000951B7ECF81E0153009F080E08093BE09F2
:103900006B960FB6F894DEBF0FBECDBFDF91CF919F
:103910001F910F91FF90EF90DF90CF900895CF937C
:10392000DF93CDB7DEB72C970FB6F894DEBF0FBE8E
:10393000CDBF66EC72E084E89FE10E94200F44EB6B
:1039400052E060EC72E084E89FE10E9460148230F3
:1039500009F16BE977E0CE0107960E943611888560
:103960008F938F818F9384ED92E09F938F93B9DE35
:10397000CE0107960E9489110F900F900F900F9023
:1039800081E02C960FB6F894DEBF0FBECDBFDF915D
:10399000CF9108956091841F7091851F42E2CE01FE
:1039A00001960E9465114EE359E066E479E084E8EF
:1039B0009FE10E94601489819A8198878F838B810F
:1039C0009C819A8789878D819E819C878B871A82AB
:1039D00019821C821B821E821D82CE0101960E94CA
:1039E0008911BDCF0F931F93CF93DF93EC010E94FA
:1039F000CF05882309F4E0C08C819D811F929F939D
:103A000084FB992790F91F929F9387701F928F9341
:103A10008E811F928F9389811F928F9384E393E00D
:103A20009F938F9387E692E09F938F931F9288E7EF
:103A30008F9302E118E01F930F930E94493B1F935D
:103A40000F9389E792E09F938F934BDE8C81829551
:103A5000869587702DB73EB72A5E3F4F0FB6F89414
:103A60003EBF0FBE2DBF81111BC04B8146954695B1
:103A700046954A3108F049E150E0BE01695F7F4F49
:103A80008AE898E00E944345EB81E695E695E69545
:103A9000EA3108F0E9E1F0E0E657F74F108209C09B
:103AA0008130D9F48F814AE06AE878E090E00E94A2
:103AB000DA3A4AE858E0FA0101900020E9F7AF014C
:103AC0004B58584020E06AE878E082E198E0DF91C6
:103AD000CF911F910F910C94F20D823031F44AE096
:103AE0006AE878E08F819885E2CF833041F44AE03C
:103AF0006AE878E08F8198850E94303BDACF843085
:103B000051F46F81788589859A852AE04AE858E0E2
:103B10000E94E43ACECF853051F46F817885898553
:103B20009A852AE04AE858E00E940F3BC2CF20E085
:103B3000873071F42B85293008F028E06F81788573
:103B400089859A850AE818E042E00E941E39B1CFC3
:103B5000EB81E695E695E695EA3108F0E9E12E1766
:103B600038F5E22FF0E0AF01440F551FDA01A657F8
:103B7000B74FEC0FFD1F8781082E000C990B34E026
:103B8000959587953A95E1F78F708A3068F4805D56
:103B90008C934557574F87818F708A3038F4805DFA
:103BA000FA0180832F5FD4CF895CF2CF895CF8CF94
:103BB000F0E0EE0FFF1F70CF80E0DF91CF911F91FB
:103BC0000F910895FC012281211101C00BCF80E0EB
:103BD0000895FC0111829481907F91609483CF01BC
:103BE000F1CFEF92FF920F931F93CF93DF93CDB757
:103BF000DEB760970FB6F894DEBF0FBECDBF082FBB
:103C0000AED9E82E602FCE0101960E94F40C4985B2
:103C10008B85883008F086C023E0829FC001112484
:103C20008058954F142F177062E1483008F063E117
:103C30000E94460F90E002C0959587951A95E2F78D
:103C4000182F1170802F0E940D0D2C873D874E87F5
:103C50005F87688BCE010C960E949D0FF82E8A8597
:103C6000813009F064C061E0111160E0802F90E0C4
:103C700083569E4F0E94D941F12E802F70D9182F64
:103C80008981AEECB8E1E0E09C91891729F0EF5F03
:103C90001B96E632C9F7EFEF81E2E89FF0011124AD
:103CA000E851FC4E838187708860838384818F71A3
:103CB000806284831783CF018CDFE1124FC06DEEE9
:103CC00079E08FED9AE00E944E064AE050E0602FC6
:103CD0008FED9AE00E94AC0E69ED79E08FED9AE0ED
:103CE0000E944E064AE050E06E2D8FED9AE00E9451
:103CF000AC0E67EC79E08FED9AE00E944E066AE028
:103D000070E08F2D0E94B20E81E060960FB6F8949D
:103D1000DEBF0FBECDBFDF91CF911F910F91FF90FE
:103D2000EF900895842F0E940D08182F8BCF8230BA
:103D300091F4802F90E083569E4F2E856E2D222386
:103D400039F02D856F2D222319F061E0F11060E02C
:103D50000E94D94192CFFF24FA948FCF61E879E095
:103D60008FED9AE00E944E064AE050E0602F8FED02
:103D70009AE00E94AC0E6DE679E08FED9AE00E9429
:103D80004E064AE050E0612F8FED9AE00E94AC0EA3
:103D90006BE579E08FED9AE00E944E066AE070E0F4
:103DA0008F2D0E94B20E80E0B0CFEF92FF920F9362
:103DB0001F93CF93DF9300D01F921F92CDB7DEB732
:103DC000182F65E178E08FED9AE00E944E066AE0D8
:103DD00070E0812F0E94B20E812F0E940D0D022FE4
:103DE00029833A834B835C836D83CE0101960E94C5
:103DF0009D0FF82E812FB3D861E0811160E0812FF3
:103E000090E083569E4F0E94D9419B818C8141E076
:103E1000992309F44AC0F11040E0883008F040C00E
:103E200023E0829FC0011124602F8058954F0E948B
:103E3000700F6AEF70E080E090E00E94AC0C812F80
:103E4000D0DE882309F457C063EF77E08FED9AE066
:103E50000E944E064AE050E0612F8FED9AE00E94EA
:103E6000AC0E6EED77E08FED9AE00E944E06812F4A
:103E700076D84AE050E0682F8FED9AE00E94AC0EB1
:103E800089EC97E00E944F0E0F900F900F900F90CB
:103E90000F90DF91CF911F910F91FF90EF900895B8
:103EA000642F802F0E943508C4CFF11040E0883085
:103EB000B0F493E0E92E8E9DC0011124602F80584C
:103EC000954F0E94700F6DE770E080E090E00E94D7
:103ED00087088C818E9DC00111244F2DA5CF642FA2
:103EE000802F0E9435086DE770E080E090E00E942E
:103EF00087086F2DD6CF67EA77E08FED9AE00E94B2
:103F00004E064AE050E0612F8FED9AE00E94AC0E21
:103F100062E977E08FED9AE00E944E06812F1FD86C
:103F20004AE050E0682F8FED9AE00E94AC0E89E7DE
:103F300097E0A8CFEF92FF921F93CF93DF9300D02B
:103F400000D000D01F921F92CDB7DEB77C01FC01DC
:103F500016816CEF71E08FED9AE00E944E066AE0E8
:103F600070E0812F0E94B20EF701F580612FCE0123
:103F700001960E94F40C8A81F81202C0812F15DF8D
:103F80006EED71E08FED9AE00E944E066AE070E0FF
:103F9000812F2B960FB6F894DEBF0FBECDBFDF91F9
:103FA000CF911F91FF90EF900C94B20E1ACE2F92EA
:103FB0003F924F925F926F927F928F929F92AF92B9
:103FC000BF92CF92DF92EF92FF920F931F93CF9306
:103FD000DF93CDB7DEB7C156D1090FB6F894DEBF77
:103FE0000FBECDBF0E94CE0C0EEB1BE076E0272E5D
:103FF000312CE2E08E2E912CAA24A394B12CD8016E
:104000008D919C9197FD1EC00E940D086C01F801D6
:10401000E084F1840E94B8082B013C01D8019D96F0
:104020008D919C919E97009709F0EDC0CE14DF040E
:1040300049F49E96BC92AE929D97F80147A650AA6D
:1040400061AA72AA095C1F4FB3E10C301B07B9F6D5
:104050000E94B808AB01BC018091060A9091070A42
:10406000A091080AB091090A80959095A095B09505
:10407000840F951FA61FB71F80369A4EA105B10564
:1040800008F4A5C00E94B80820914D18277020623E
:1040900020934D1820914E182F71206A20934E18AE
:1040A000609351187093521880935318909354183A
:1040B0008AE498E18EDD8091781A9091791A0197BF
:1040C00021F480E79AE10E94840A28E0AE014F5D66
:1040D0005F4F67EF80E79AE10E94BC0FFE01B19647
:1040E000DE0111969E01275D3F4F419150E070E047
:1040F00060E04D935D936D937D93E217F307A9F70D
:104100008111A7C1412C512C50EC652E5FE7752E13
:10411000730162019301820108AF19AF2AAF3BAF6F
:1041200080916E188770886280936E1880916F18E6
:10413000806E80936F1828AD39AD4AAD5BAD20938A
:10414000721830937318409374185093751811E0D7
:10415000109376188BE698E13CDD80918F1887707C
:10416000886280938F1880919018806E8093901849
:1041700040929318509294186092951870929618E5
:10418000109297188CE898E124DD8091B018877020
:1041900088628093B0188091B118806E8093B118B6
:1041A000C092B418D092B518E092B618F092B71831
:1041B0001093B8188DEA98E10CDD0E94B80860935E
:1041C000060A7093070A8093080A9093090A0E94CE
:1041D000CE0CCF59DF4F0FB6F894DEBF0FBECDBF68
:1041E000DF91CF911F910F91FF90EF90DF90CF90D3
:1041F000BF90AF909F908F907F906F905F904F9007
:104200003F902F9008958130910509F06AC0F80120
:1042100087A590A9A1A9B2A9B301A201481B590B76
:104220006A0B7B0BCE14DF0499F082819381B0E09E
:10423000A0E0481759076A077B0718F416A615A6C9
:1042400001CF96A685A643AA54AA65AA76AAFACE55
:1042500086819781B0E0A0E084179507A607B7078D
:10426000C0F5EE24E394E2860788F08DE02D3097C8
:1042700009F01995D8015B96ED91FC91309709F002
:104280001995D8015D96ED91FC915E97309721F0DC
:104290005F968D919C911995D8019796ED91FC911F
:1042A000309709F01995D8019996ED91FC919A975C
:1042B000309721F09B968D919C911995F80136A627
:1042C00025A6D801D3964D925D926D927C92D69799
:1042D000B9CE018CF28DE02D309709F4B3CE19954B
:1042E000B1CE8230910509F053C0F80181899289DD
:1042F000892B21F483899489892BA1F0F80187A562
:1043000090A9A1A9B2A9B301A201481B590B6A0B3C
:104310007B0B84819581B0E0A0E084179507A60708
:10432000B707A0F4D8011B96ED91FC91309709F0E6
:104330001995D8011D96ED91FC911E97309721F0AB
:104340001F968D919C911995F80178CFCE14DF04BA
:1043500009F078CE83A994A9A5A9B6A9B301A201B1
:10436000481B590B6A0B7B0B82819381B0E0A0E064
:1043700084179507A607B70708F064CE63E0E62E1A
:10438000F12CF6A6E5A647A650AA61AA72AA5ACEB3
:104390008330910571F5CE14DF0409F453CEF80192
:1043A00087A590A9A1A9B2A9B301A201481B590BE5
:1043B0006A0B7B0B82819381B0E0A0E084179507A4
:1043C000A607B70708F03ECE0188F289E02D3097A6
:1043D00009F01995D8015396ED91FC9154973097B7
:1043E00021F055968D919C911995F80116A615A668
:1043F00068CF069709F026CECE14DF0499F0F801B5
:10440000128601A0F2A1E02D309709F01995D8018C
:104410009396ED91FC919497309739F395968D9101
:104420009C91E2CFEE24E394F801E28607A0F0A588
:10443000E02D309709F01995D8019996ED91FC91EE
:104440009A97309709F4FECD9B968D919C91199582
:10445000F9CD29813A814B815C8160962CAF3DAFCB
:104460004EAF5FAF60978D819E81AF81B8856496B6
:104470008CAF9DAFAEAFBFAF6497E984FA840B8574
:104480001C856896ECAEFDAE0EAF1FAF68978D85AC
:104490009E85AF85B8891CE0880F991FAA1FBB1F96
:1044A0001A95D1F749895A896B897C8904E0440FB0
:1044B000551F661F771F0A95D1F7842B952BA62BC6
:1044C000B72B2D893E894F89588D64E055954795C6
:1044D000379527956A95D1F7822B932BA42BB52B73
:1044E000898C9A8CAB8CBC8CBA2CA92C982C8824E7
:1044F0004D8D5E8D6F8D78A195018401042B152B58
:10450000262B372B6C960CAF1DAF2EAF3FAF6C97A1
:104510004091801A5091811A70E060E04C015D0179
:10452000E4E0B594A79497948794EA95D1F7841A18
:10453000950AA60AB70AF3E0B595A79597958795CA
:10454000FA95D1F7440F551F661F771F7C018D0127
:10455000E41AF50A060B170BA8019701A091821A1D
:10456000B091831A0E94F5416B017C010BE0F59438
:10457000E794D794C7940A95D1F7A5019401C50192
:10458000B4010E9494429B01AC018CE05595479583
:10459000379527958A95D1F7A091841AB091851AFD
:1045A0000E94F5412EE095958795779567952A9518
:1045B000D1F797018601060F171F281F391F09A77A
:1045C0001AA72BA73CA7A5E0B0E0A90198010E947B
:1045D000EB4160587F4F8F4F9F4F672F782F892F68
:1045E000992787FD9A950E94C04020E030E048EC72
:1045F00052E40E942C4268AF79AF8AAF9BAF109112
:104600008C1AA2961FAFA29720918D1A26962FAFD3
:10461000269730918E1A6E963FAF6E9740918F1A03
:104620004DAF5091901AA1965FAFA1978091911ACA
:104630008DAB9091921A6F969FAF6F97A091931A3E
:104640002496AFAF2497B091941AA096BFAFA097CD
:10465000E091951A2596EFAF2597F091961A6D96F1
:10466000FFAF6D97E090971AECAEC9A4DAA4EBA463
:10467000FCA4FF0CCC08DC2C760129A53AA54BA59F
:104680005CA56C2D7C2D8C2D9C2D345F41405109F7
:1046900061097109810991092DA73EA74FA758AB60
:1046A00069AB7AAB8BAB9CAB59016A017B018C0186
:1046B0000E94AB422EAB3FAB27964FAF2797289671
:1046C0005FAF289729966FAF29972A967FAF2A97D1
:1046D0002B968FAF2B972C969FAF2C973091891AE2
:1046E0002091881A932F990F990B492F592F692FD1
:1046F000792F892F0E94AB420CE00E94CB43190115
:104700002A013B014C0130918B1A20918A1A932F78
:10471000990F990BAEA8BFA82796CFAC27972896DC
:10472000DFAC28972996EFAC29972A96FFAC2A97F9
:104730002B960FAD2B972C961FAD2C97492F592FE9
:10474000692F792F892F0E94AB4208E00E94E44331
:1047500051016201730184010E94014470588F4F1E
:104760009F4F2090861A3090871A5101C12CD12C6E
:10477000E12CF12C00E010E00E94AB4201E20E942B
:10478000E4432EAF3FAF21964FAF219722965FAF04
:10479000229723966FAF2397272E382E492EA0E01D
:1047A0000E94134409F437C2A1962FADA1979DA989
:1047B000990F990BAEA8BFA82796CFAC279728963C
:1047C000DFAC28972996EFAC29972A96FFAC2A9759
:1047D0002B960FAD2B972C961FAD2C973DA9492FEB
:1047E000592F692F792F892F0E94AB422DAB3EABF9
:1047F0004FAB552E3B014C016E962FAD6E979DAD84
:10480000990F990BADA4BEA4CFA4D8A8E9A8FAA883
:104810000BA91CA93DAD492F592F692F792F892F3D
:104820000E94AB4201E10E94CB43ADA8BEA8CFA835
:10483000D52C730184010E94014459016A017B0156
:10484000182F592E64964CAD5DAD6EAD7FAD64975B
:10485000E4E0440F551F661F771FEA95D1F768966D
:104860008CAD9DADAEADBFAD6897F4E0B595A795A5
:1048700097958795FA95D1F7842B952BA62BB72B77
:1048800060964CAD5DAD6EAD7FAD60970CE0440FB2
:10489000551F661F771F0A95D1F7482B592B6A2B96
:1048A0007B2B80E090E0A0E1B0E0841B950BA60B91
:1048B000B70B3C014D01990C6608762C43019C0115
:1048C000AD01662D762D862D962D0FE10E94CB43EE
:1048D00039014A01B62FA72FF82FE92FA2962FAD45
:1048E000A29726969FAD2697990F990B26963FADD6
:1048F0002697492F592F692F792F892F03E20E947C
:10490000CB43012F152D0E94014459016A017B01FF
:104910008C019301A4016B2F7A2F8F2F9E2F0E9461
:104920000A44E5E3AE2EFCE0BF2EC12CD12CE12CD5
:10493000F12C00E010E00E94AB42AEACBFAC21967F
:10494000CFAC21972296DFAC22972396EFAC23972A
:10495000F22C032D142D0E94FD422DA73EA74FA738
:1049600058AB69AB7AAB8BAB9CAB0DE00E94E443D8
:10497000322E292E6D962FAD6D979CAD990F990B08
:10498000A32CB32EC42ED52EE62EF72E082F122DD3
:104990003CAD492F592F692F792F892F0E94AB42A7
:1049A0000E94AB4209E10E94E443ADA4BEA4CFA49F
:1049B000D8A8E9A8FAA80BA91CA90E9401441901CA
:1049C0002A013B014C01A0962FADA09725969FADE3
:1049D0002597990F990B25963FAD2597492F592F6C
:1049E000692F792F892F0E94AB4203E10E94E44393
:1049F00059016A017B018C019101A201B301C4013B
:104A00000E94014408E00E94E44359016A017B01CD
:104A1000E82F192F6F962FAD6F9724969FAD24978F
:104A2000990F990B24963FAD2497492F592F692F41
:104A3000792F892F04E00E94CB430E2F0E9401445E
:104A4000B901CA010E94BE4020E030E040E85BE3CB
:104A50000E94FB402B013C0120919D1AC9A4DAA4BD
:104A6000EBA4FCA40CE2D01A01E0E00AF1086C9679
:104A70008CAC9DACAEACBFAC6C973EE0880C991C86
:104A8000AA1CBB1C3A95D1F780919C1A10E1819F1A
:104A9000C0011124322F3F70832B092E000CAA0B6A
:104AA000BB0B44E1880F991FAA1FBB1F4A95D1F782
:104AB000881A990AAA0ABB0AA0919E1A30E1A39FFC
:104AC000D001112422952F70A22BA70196010E94DC
:104AD000F541861A970AA80AB90A40E4940EA11C67
:104AE000B11C5FE0B594A794979487945A95D1F739
:104AF000A0919B1AB0E0A7010E94EB41EBE09595D5
:104B0000879577956795EA95D1F78B019C011058A9
:104B10002F4F3F4F09A71AA72BA73CA7A0919F1A79
:104B20000A2E000CBB0B96010E94F541FAE0959508
:104B3000879577956795FA95D1F729A53AA54BA55D
:104B40005CA50E9494429B01AC01AAE05595479553
:104B500037952795AA95D1F7405E5F4FA091991A96
:104B6000B0919A1A0E94F541705E8F4F9F4FBEE040
:104B70009595879577956795BA95D1F7A501940195
:104B80000E9494426B017C011FE095958795779573
:104B900067951A95D1F79B01AC010E9494429B0145
:104BA000AC0107E055954795379527950A95D1F7BC
:104BB000A091981AB0E00E94EB4124E0959587956A
:104BC000779567952A95D1F7C61AD70AE80AF90AA0
:104BD000F7FE03C0C12CD12C7601C701B6016130AC
:104BE0007105810519E1910724F060E070E080E033
:104BF00099E12CE095958795779567952A95D1F75A
:104C00000E94BE4020E030E040E85AE30E94FB40B2
:104C10006B017C0185CA412C512C30EC632E3FE79F
:104C2000732E1ACF1092501B1092511B8093551B5C
:104C30006093541B9091531B907E9093531B8F3F16
:104C400011F44AED53E0BA018FE49BE10E943C1B52
:104C50000C94E21D2F923F924F925F926F927F923F
:104C60008F929F92AF92BF92CF92DF92EF92FF927C
:104C70000F931F93CF93DF93CDB7DEB76D970FB62A
:104C8000F894DEBF0FBECDBF2DB73EB73C8F2B8F44
:104C90001092501B1092511B1FEF1093551B8BE06D
:104CA0008093541B8091531B807E83608093531BA1
:104CB00068EE73E08FE49BE10E943C1B0E94E21DC2
:104CC0001092501B1092511B1093551B8CE0809337
:104CD000541B8091531B807E83608093531B60EF35
:104CE00073E08FE49BE10E943C1B0E94E21D2EECCE
:104CF000E22E28E1F22ED12CC12CD7015C90119626
:104D0000BC91BD8FF7010380F481E02DF88FEF8B0C
:104D1000D70115968C911597813009F087C1EDB7B1
:104D2000FEB7FA8FE98F61E0852D0E94F116DC0154
:104D30000D900020E9F79D01281B390BEDB7FEB758
:104D4000E21BF30B0FB6F894FEBF0FBEEDBF2DB7FD
:104D50003EB72F5F3F4F5901BC01C9010E943C453E
:104D60004AE0BE016F5E7F4F852D90E00E94DA3AE7
:104D7000652DCE0101960E94F40C0A811B812C80C6
:104D80003D800E8BEEECF8E180E091E0980F208101
:104D9000521629F03B96892F9632B9F78FEF4424AB
:104DA0004394480EC10199270E94DE0C4C01112743
:104DB00080EE682E83E0782E0033110538F4F80178
:104DC000EE0FFF1FE75DFD4F608071804AE0BE017E
:104DD000645F7F4F842D90E00E94DA3A65EF73E0C4
:104DE0008DEB98E00E943C45B3018DEB98E00E946A
:104DF0001D4565E074E08DEB98E00E941D45B4010F
:104E00008DEB98E00E941D453E89323081F443E0ED
:104E100024120DC067E074E08DEB98E00E941D4500
:104E2000BE01645F7F4F8DEB98E00E941D4569E0F5
:104E300074E08DEB98E00E941D45B4018DEB98E085
:104E40000E941D4567E074E08DEB98E00E941D45CF
:104E5000BE016F5E7F4F8DEB98E00E941D455E891D
:104E6000523079F467E174E08DEB98E00E941D45C3
:104E700063E0852D0E94F116BC018DEB98E00E9445
:104E80001D4563E274E08DEB98E00E941D4562E0F1
:104E9000852D0E94F116BC018DEB98E00E941D4506
:104EA00065E174E08DEB98E00E941D458E8960E31A
:104EB00074E0823009F4ACC00430110509F4B0C0CC
:104EC00008F09DC00115110509F4A7C064E575E05F
:104ED0000130110509F49CC06BED75E08DEB98E095
:104EE0000E941D45EDEBF8E0DF010D900020E9F791
:104EF000CD018D5B98402DB73EB7281B390B0FB6FF
:104F0000F8943EBF0FBE2DBF0DB71EB70F5F1F4FEA
:104F100001900020E9F7AF014D5B58406DEB78E060
:104F2000C8010E944345F80101900020E9F731973C
:104F3000AF01401B510B21E0B801C5010E94F20DE9
:104F4000C5010E94040FC8010E94040F64E670E0CE
:104F500080E090E00E94AC0C498D5A8D0FB6F89419
:104F60005EBF0FBE4DBFBD8DB230A9F4EF89E330F7
:104F700091F4852D0E94AF17F601E851FC4E938104
:104F800097709860938394819F71906294838783D4
:104F9000CF010E94E91DFBE0EF0EF11C21E2C20EE1
:104FA000D11C36EEC31634E0D30609F0A6CE8AE152
:104FB00096E00E944F0E8DED95E00E94040F4B8D00
:104FC0005C8D0FB6F8945EBF0FBE4DBF6D960FB6E9
:104FD000F894DEBF0FBECDBFDF91CF911F910F912F
:104FE000FF90EF90DF90CF90BF90AF909F908F9009
:104FF0007F906F905F904F903F902F900895053273
:10500000110589F062E874E00F32110509F064CFF0
:105010008DEB98E00E941D455FCF6EEB74E0F8CFFA
:1050200064E075E0F5CF65E975E0F2CF823049F4D0
:1050300016964D915C916F89788D7727852DF2DDDD
:1050400092CF88E396E00E944F0E8DCF4BE957E058
:1050500061E170E08FEFE6DDFDCD1F920F920FB69C
:105060000F9211240BB60F922F933F934F935F93A0
:105070006F937F938F939F93AF93BF93EF93FF9320
:1050800087EE9EE10E94EE06FF91EF91BF91AF91F6
:105090009F918F917F916F915F914F913F912F9150
:1050A0000F900BBE0F900FBE0F901F9018951F9280
:1050B0000F920FB60F9211240BB60F922F938F936E
:1050C0009F93EF93FF93E091F71EF091F81E80817C
:1050D000E091FD1EF091FE1E82FD1DC09081809129
:1050E000001F8F5F8F732091011F821741F0E091A5
:1050F000001FF0E0E951F14E958F8093001FFF9162
:10510000EF919F918F912F910F900BBE0F900FBE3B
:105110000F901F9018958081F2CF1F920F920FB6BB
:105120000F9211240BB60F922F933F934F935F93DF
:105130006F937F938F939F93AF93BF93EF93FF935F
:105140008FED9AE00E94EE06FF91EF91BF91AF9133
:105150009F918F917F916F915F914F913F912F918F
:105160000F900BBE0F900FBE0F901F9018951F92BF
:105170000F920FB60F9211240BB60F922F938F93AD
:105180009F93EF93FF93E091EF0AF091F00A8081F3
:10519000E091F50AF091F60A82FD1DC090818091A0
:1051A000F80A8F5F8F732091F90A821741F0E0911E
:1051B000F80AF0E0E152F54F958F8093F80AFF91DD
:1051C000EF919F918F912F910F900BBE0F900FBE7B
:1051D0000F901F9018958081F2CF1F920F920FB6FB
:1051E0000F9211242F933F938F939F93AF93BF936D
:1051F0008091780A9091790AA0917A0AB0917B0AFD
:105200003091770A23E0230F2D3758F50196A11D21
:10521000B11D2093770A8093780A9093790AA0931E
:105220007A0AB0937B0A80917C0A90917D0AA091C2
:105230007E0AB0917F0A0196A11DB11D80937C0A60
:1052400090937D0AA0937E0AB0937F0ABF91AF919D
:105250009F918F913F912F910F900FBE0F901F90B4
:10526000189526E8230F0296A11DB11DD2CF1F92DB
:105270000F920FB60F9211240BB60F922F933F93FC
:105280004F935F936F937F938F939F93AF93BF934E
:10529000EF93FF93E0911202F09113021995FF91A1
:1052A000EF91BF91AF919F918F917F916F915F919E
:1052B0004F913F912F910F900BBE0F900FBE0F900B
:1052C0001F9018951F920F920FB60F9211240BB6D4
:1052D0000F922F933F934F935F936F937F938F938F
:1052E0009F93AF93BF93EF93FF93E0911002F091E0
:1052F00011021995FF91EF91BF91AF919F918F91FD
:105300007F916F915F914F913F912F910F900BBEC5
:105310000F900FBE0F901F9018951F920F920FB60F
:105320000F9211240BB60F922F933F934F935F93DD
:105330006F937F938F939F93AF93BF93EF93FF935D
:10534000E0910602F09107021995FF91EF91BF914C
:10535000AF919F918F917F916F915F914F913F910D
:105360002F910F900BBE0F900FBE0F901F901895AE
:105370001F920F920FB60F9211240BB60F922F931C
:105380003F934F935F936F937F938F939F93AF93CD
:10539000BF93EF93FF93E0910402F09105021995FA
:1053A000FF91EF91BF91AF919F918F917F916F91FD
:1053B0005F914F913F912F910F900BBE0F900FBEB9
:1053C0000F901F9018951F920F920FB60F921124F5
:1053D0000BB60F922F933F934F935F936F937F93EF
:1053E0008F939F93AF93BF93EF93FF93E0910E0240
:1053F000F0910F021995FF91EF91BF91AF919F919D
:105400008F917F916F915F914F913F912F910F906D
:105410000BBE0F900FBE0F901F9018951F920F920A
:105420000FB60F9211240BB60F922F933F934F9309
:105430005F936F937F938F939F93AF93BF93EF93FC
:10544000FF93E0910C02F0910D021995FF91EF91FD
:10545000BF91AF919F918F917F916F915F914F918C
:105460003F912F910F900BBE0F900FBE0F901F908A
:1054700018951F920F920FB60F9211240BB60F9230
:105480002F933F934F935F936F937F938F939F934C
:10549000AF93BF93EF93FF93E0910A02F0910B0259
:1054A0001995FF91EF91BF91AF919F918F917F914E
:1054B0006F915F914F913F912F910F900BBE0F9085
:1054C0000FBE0F901F9018951F920F920FB60F925C
:1054D00011240BB60F922F933F934F935F936F93CB
:1054E0007F938F939F93AF93BF93EF93FF93E0913D
:1054F0000802F09109021995FF91EF91BF91AF91C8
:105500009F918F917F916F915F914F913F912F91DB
:105510000F900BBE0F900FBE0F901F9018951F920B
:105520000F920FB60F9211240BB60F922F933F9349
:105530004F935F936F937F938F939F93AF93BF939B
:10554000EF93FF938091B900887F803609F44DC0B6
:1055500008F040C0883209F4A9C028F5803109F468
:105560009DC0C8F4882309F4FBC0883009F496C0B4
:10557000FF91EF91BF91AF919F918F917F916F912B
:105580005F914F913F912F910F900BBE0F900FBEE7
:105590000F901F901895883109F488C0803241F728
:1055A0008093DC0A14C0803409F49DC040F4803339
:1055B000B9F38833E9F68093DC0A85ECB0C0803516
:1055C00009F485C0883509F496C0883489F60E94AC
:1055D000330BCECF883909F48CC038F5883729F0E1
:1055E00050F4883611F0803719F683E08093DE0A94
:1055F0001092700A57C0883809F47BC0803919F0BE
:10560000803809F0B5CF8091700A803208F071C0FF
:10561000E091700A81E08E0F8093700A8091BB0048
:10562000F0E0E05BF54F80833DC0803B39F0E0F473
:10563000803A09F479C0883A09F09ACF84E08093DF
:10564000DE0A10924D0A10924C0AE0914A0AF0913B
:105650004B0A199580914C0A81110FC081E080930B
:105660004C0A10922A0A09C0803C09F4A6CF883C53
:1056700009F4A3CF883B09F07BCFE0914D0A81E08C
:105680008E0F80934D0AF0E0E65DF54F80818093A8
:10569000BB0090914D0A80914C0A29C08091D90A93
:1056A0008093BB0085EC8093BC0062CF9091DB0AB5
:1056B0008091DA0A981758F5E091DB0A81E08E0FA5
:1056C0008093DB0AF0E0E854F54F8081E9CFE09168
:1056D000DB0A81E08E0F8093DB0A8091BB00F0E053
:1056E000E854F54F80839091DB0A8091DA0A98178D
:1056F000C8F285E8D8CFE091DB0A81E08E0F809375
:10570000DB0A8091BB00F0E0E854F54F8083809184
:10571000DD0A81115CCF81E08093D80A84EA80930E
:10572000BC001092DE0A24CF85EC8093BC0010925E
:10573000DE0A8091700A803230F4E091700AF0E065
:10574000E05BF54F10826091700A70E0E0914E0AC4
:10575000F0914F0A80E59AE019951092700A08CFEF
:105760001092DC0A34CF1F920F920FB60F921124C1
:105770000F900FBE0F901F9018952F923F924F924F
:105780005F926F927F928F929F92AF92BF92CF92D1
:10579000DF92EF92FF920F931F93CF93DF931092BC
:1057A000EA1E1092E91E48EE53E060E070E040937C
:1057B000EB1E5093EC1E6093ED1E7093EE1E81EC79
:1057C00092E09093E81E8093E71E2DEC30E030933A
:1057D000F41E2093F31E2CEC30E03093F61E209341
:1057E000F51E28EC30E03093F81E2093F71E29ECCC
:1057F00030E03093FA1E2093F91E2AEC30E030930B
:10580000FC1E2093FB1E2EEC30E03093FE1E2093F6
:10581000FD1E1092001F1092011F1092021F109285
:10582000031F1092E20A1092E10A4093E30A509398
:10583000E40A6093E50A7093E60A9093E00A809385
:10584000DF0A85EC90E09093EC0A8093EB0A84ECFD
:1058500090E09093EE0A8093ED0A80EC90E09093B4
:10586000F00A8093EF0A81EC90E09093F20A809323
:10587000F10A82EC90E09093F40A8093F30A86ECAC
:1058800090E09093F60A8093F50A1092F80A10922D
:10589000F90A1092FA0A1092FB0A10927F0B1092EA
:1058A0007E0B4093800B5093810B6093820B70931F
:1058B000830B83ED92E090937D0B80937C0B89E1C9
:1058C00093E09093890B8093880B10928A0B10922F
:1058D0008B0B10928C0B10928D0B90938F0B8093EF
:1058E0008E0B1092900B1092910B1092920B1092C3
:1058F000930B9093950B8093940B1092960B1092B0
:10590000970B1092980B1092990B90939B0B80938E
:105910009A0B10929C0B10929D0B10929E0B109262
:105920009F0B9093A10B8093A00B1092A20B10924F
:10593000A30B1092A40B1092A50B9093AD0B809328
:10594000AC0B1092AE0B1092AF0B1092B00B1092EA
:10595000B10B9093A70B8093A60B1092A80B1092FB
:10596000A90B1092AA0B1092AB0B9093B30B8093E0
:10597000B20B1092B40B1092B50B1092B60B1092A2
:10598000B70B9093B90B8093B80B1092BA0B10928F
:10599000BB0B1092BC0B1092BD0B9093911F809388
:1059A000901F1092921F1092931F1092941F1092AA
:1059B000951F27EE3EE13093851F2093841F2AE038
:1059C000F22EE6E8FFE1DF01CF2C1D92CA94E9F741
:1059D00023ED3CE11092D61C1092D51C4093D71CAD
:1059E0005093D81C6093D91C7093DA1C4BEF52E093
:1059F0005093D41C4093D31C1092E61E1092E51EC7
:105A00001092E41E1092E31E44E85FE15093E01C04
:105A10004093DF1CC1E0C093E11C1092E21C309364
:105A2000891F2093881F1092B51B1092B41B4FEE54
:105A300052E05093B31B4093B21B9093C61C8093CB
:105A4000C51C1092C71C1092C81C1092C91C109241
:105A5000CA1C8FEF9FEF9093D21C8093D11C309380
:105A6000B71B2093B61B1092D01C1092CF1C81E95B
:105A70009BE10E94DD0D80E79BE10E94DD0D8FE43C
:105A80009BE10E94DD0D1092A51AC093A61A1092F8
:105A9000A71A1092A81A4BE04093A91AC093AA1A09
:105AA000C093AB1A1092AC1A1092AD1A3CE0632E60
:105AB0006092AE1A62E06093AF1AC093B01A10926F
:105AC000B11A1092B21A5DE0A52EA092B31A93E01B
:105AD0009093B41AC093B51A1092B61A1092B71ACE
